:100000000C9463000C948B000C948B000C944204B1
:100010000C9442040C9442040C948B000C948B00BE
:100020000C948B000C948B000C948B000C948B0024
:100030000C948B000C948B000C948B000C948B0014
:100040000C94F8030C948B000C94C6030C94A0033E
:100050000C948B000C948B000C948B000C948B00F4
:100060000C948B000C948B000000000024002700EF
:100070002A0000000008000201000003040700003D
:1000800000000000000000000000230026002900FE
:1000900000000000250028002B00040404040404D0
:1000A0000404020202020202030303030303010227
:1000B00004081020408001020408102001020408F6
:1000C0001020BA040D0811241FBECFEFD8E0DEBF08
:1000D000CDBF23E0A8EDB1E001C01D92A333B2076C
:1000E000E1F711E0A0E0B1E0ECE3F5E102C005903A
:1000F0000D92A83DB107D9F710E0C2E6D0E004C0E8
:100100002197FE010E949008C136D107C9F70E94CD
:10011000B6050C94910A0C940000CF92DF92EF92F6
:10012000FF920F931F932FB7F894C0902102D090A5
:100130002202E0902302F09024022FBF6C0D7D1D5F
:100140008E1D9F1D4FB7F89400912102109122023D
:1001500020912302309124024FBF0C151D052E055E
:100160003F0528F0601771078207930758F71F9122
:100170000F91FF90EF90DF90CF900895AF92BF92D4
:10018000CF92DF92EF92FF920F931F93CF93DF9363
:100190006C017B018B01040F151FEB015E01AE1892
:1001A000BF08C017D10759F06991D601ED91FC91B4
:1001B0000190F081E02DC6010995892B79F7C501E1
:1001C000DF91CF911F910F91FF90EF90DF90CF9033
:1001D000BF90AF9008950895FC01538D448D252F55
:1001E00030E0842F90E0821B930B541710F0CF96D1
:1001F000089501970895FC01918D828D981761F003
:10020000A28DAE0FBF2FB11D5D968C91928D9F5F19
:100210009F73928F90E008958FEF9FEF0895FC01F8
:10022000918D828D981731F0828DE80FF11D858DAB
:1002300090E008958FEF9FEF0895FC01918D228D3E
:10024000892F90E0805C9F4F821B91098F739927C3
:10025000089585E292E00E941D0121E0892B09F4B6
:1002600020E0822F089580E090E0892B29F00E9401
:10027000290181110C9400000895FC01A48DA80FA0
:10028000B92FB11DA35ABF4F2C91848D90E00196D8
:100290008F739927848FA689B7892C93A089B189F8
:1002A0008C91837080648C93938D848D981306C099
:1002B0000288F389E02D80818F7D80830895EF92FD
:1002C000FF920F931F93CF93DF93EC0181E0888F10
:1002D0009B8D8C8D98131AC0E889F989808185FFE0
:1002E00015C09FB7F894EE89FF896083E889F98982
:1002F00080818370806480839FBF81E090E0DF9184
:10030000CF911F910F91FF90EF900895F62E0B8DD6
:1003100010E00F5F1F4F0F731127E02E8C8D8E1191
:100320000CC00FB607FCFACFE889F989808185FFF8
:10033000F5CFCE010E943D01F1CFEB8DEC0FFD2FEB
:10034000F11DE35AFF4FF0829FB7F8940B8FEA89B3
:10035000FB8980818062CFCFCF93DF93EC01888DC2
:100360008823B9F0AA89BB89E889F9898C9185FD30
:1003700003C0808186FD0DC00FB607FCF7CF8C91BE
:1003800085FFF2CF808185FFEDCFCE010E943D0138
:10039000E9CFDF91CF91089590E0FC01EE58FF4F37
:1003A0002491FC01E255FF4F3491FC01E656FF4FCA
:1003B000E491EE23C9F0222339F0233001F1A8F4AF
:1003C000213019F1223029F1F0E0EE0FFF1FE05744
:1003D000FF4FA591B4918FB7F894EC91611126C0AD
:1003E00030953E233C938FBF08952730A9F02830E5
:1003F000C9F0243049F7809180008F7D03C080913F
:1004000080008F7780938000DFCF84B58F7784BDA5
:10041000DBCF84B58F7DFBCF8091B0008F77809349
:10042000B000D2CF8091B0008F7DF9CF3E2BDACFD4
:10043000CF93DF9390E0FC01E255FF4F2491865665
:100440009F4FFC0184918823D1F090E0880F991F81
:10045000FC01E859FF4FA591B491FC01E057FF4F13
:10046000C591D49161110EC09FB7F8948C91E22F81
:10047000E0958E238C932881E223E8839FBFDF9150
:10048000CF9108958FB7F894EC91E22BEC938FBF46
:10049000F6CF3FB7F8948091190290911A02A0917B
:1004A0001B02B0911C0226B5A89B05C02F3F19F076
:1004B0000196A11DB11D3FBFBA2FA92F982F8827E4
:1004C000BC01CD01620F711D811D911D42E0660FBF
:1004D000771F881F991F4A95D1F708958F929F9291
:1004E000AF92BF92CF92DF92EF92FF924B015C01ED
:1004F0000E9449026B017C010E9449026C197D092E
:100500008E099F09683E734081059105A8F321E09B
:10051000821A9108A108B10888EEC80E83E0D81E9F
:10052000E11CF11C81149104A104B10429F7FF908E
:10053000EF90DF90CF90BF90AF909F908F900895F5
:1005400020911F02309120022817390771F49091F1
:100550001D0280911E02981741F0E0911D02F0E00B
:10056000E852FE4F808190E008958FEF9FEF08954D
:10057000EF92FF920F931F93CF93DF93DC015C9672
:10058000ED90FC905D97E114F10479F481E090E046
:1005900013969C938E93129790E080E0DF91CF9119
:1005A0001F910F91FF90EF9008955196ED91FC915E
:1005B000529750968C915097982F90950FB75E96C2
:1005C0002C915E97122F127021FD6095F894208176
:1005D000112319F1282B2083E7012197F1F728E057
:1005E000462F50E0308160FF1AC0382B3083E7017E
:1005F0002197F1F7BA0175956795215089F7112375
:1006000081F08081892380830FBF5C968D919C91BE
:100610000197F1F781E090E0C1CF2923DCCF3923A6
:10062000E5CF9081892BEFCF20911F0230912002DE
:100630002817390771F480911E0220911D0290E065
:10064000805C9F4F821B910960E470E00E94680803
:10065000089590E080E0089520911F0230912002DB
:1006600028173907B9F490911D0280911E0298173E
:1006700089F0E0911D02F0E0E852FE4F8081209168
:100680001D0230E02F5F3F4F2F73332720931D0251
:1006900090E008958FEF9FEF089590E080E0089537
:1006A000FB0101900020E9F73197AF01461B570B82
:1006B000DC01ED91FC910280F381E02D0994CF9350
:1006C000DF93BC0180E193E00E945003EC0163E6FC
:1006D00071E080E193E00E9450038C0F9D1FDF9139
:1006E000CF910895CF93DF93EC0180910A0390910D
:1006F0000B03009759F020910C0330910D032C1738
:100700003D0720F081E0DF91CF910895BE016F5F3A
:100710007F4F0E94BB09009789F090930B03809351
:100720000A03D0930D03C0930C0320910E03309164
:100730000F03232B39F7FC011082E4CF80E0E3CFD5
:100740001F920F920FB60F9211242F933F934F9346
:100750005F936F937F938F939F93AF93BF93EF9329
:10076000FF9385E292E00E943D01FF91EF91BF91DE
:10077000AF919F918F917F916F915F914F913F9139
:100780002F910F900FBE0F901F9018951F920F92F0
:100790000FB60F9211242F938F939F93EF93FF9394
:1007A000E0913502F09136028081E0913B02F091B8
:1007B0003C0282FD1BC0908180913E028F5F8F734F
:1007C00020913F02821741F0E0913E02F0E0EB5DA4
:1007D000FD4F958F80933E02FF91EF919F918F91F6
:1007E0002F910F900FBE0F901F9018958081F4CF1E
:1007F0001F920F920FB60F9211242F933F938F9356
:100800009F93AF93BF938091210290912202A09178
:100810002302B09124023091180223E0230F2D37D8
:1008200058F50196A11DB11D209318028093210255
:1008300090932202A0932302B09324028091190284
:1008400090911A02A0911B02B0911C020196A11D69
:10085000B11D8093190290931A02A0931B02B093CA
:100860001C02BF91AF919F918F913F912F910F905B
:100870000FBE0F901F90189526E8230F0296A11D1A
:10088000B11DD2CF1F920F920FB60F9211242F934A
:100890003F934F935F936F937F938F939F93AF9308
:1008A000BF93EF93FF93E0911F02F09120023097E6
:1008B00049F0A685B7858585968D91FF14C09C91DA
:1008C0008923A1F4FF91EF91BF91AF919F918F91F7
:1008D0007F916F915F914F913F912F910F900FBE3C
:1008E0000F901F9018959C91892361F7A389B48973
:1008F0009C918589809589238C9386899789019716
:10090000F1F7608D718DA685B785558538E020E0BB
:10091000CB010197F1F7822F90E095958795282FCD
:100920004C91452309F02068315091F7868D81FD67
:10093000209580911E0290E001968F739927309147
:100940001D02381799F0A0911E02B0E0A852BE4FC8
:100950002C9380931E02828D938D0197F1F7A389CA
:10096000B4898C919589892B8C93ACCF868D8160CD
:10097000868FF1CF109228021092270288EE93E022
:10098000A0E0B0E08093290290932A02A0932B026A
:10099000B0932C022AE031E0309326022093250206
:1009A00025EC30E0309332022093310224EC30E029
:1009B000309334022093330220EC30E0309336023F
:1009C0002093350221EC30E0309338022093370237
:1009D00022EC30E030933A022093390226EC30E0EA
:1009E00030933C0220933B0210923E0210923F0251
:1009F00010924002109241021092C8021092C90255
:100A00001092CA021092CB021092CC021092CD0228
:100A10001092CE021092CF021092D0021092D10208
:100A20001092D2021092D3021092D4021092D502E8
:100A30001092D6021092D702109213031092120352
:100A40008093140390931503A0931603B093170398
:100A50008CE191E09093110380931003109227038F
:100A600010922603109229031092280310922B0350
:100A700010922A0310922D0310922C0360912E03E2
:100A80006E7F6D7F60932E036695617081E06827AD
:100A900082E00E94CC0161E082E00E941802E0EB5B
:100AA000F0E0E491E0932003ECE9F0E0E491F0E081
:100AB000EE0FFF1FE057FF4F859194919093220313
:100AC0008093210360E083E00E94180280912E034E
:100AD00081FD04C061E083E00E94CC0183E080934B
:100AE0001C03E1EBF0E0E491E0931D03EDE9F0E09D
:100AF000E491F0E0EE0FFF1FEA57FF4F85919491CC
:100B000090931F0380931E0310920B0310920A030D
:100B100010920D0310920C0310920F0310920E030B
:100B200090E080E00E94720320910A0330910B0351
:100B3000811113C02115310519F0C9010E94320934
:100B400010920B0310920A0310920F0310920E03DF
:100B500010920D0310920C03089510920F0310923F
:100B60000E0365E671E0C9010C948A0ACF93DF9306
:100B700000D0CDB7DEB7789484B5826084BD84B5EB
:100B8000816084BD85B5826085BD85B5816085BD88
:100B900080916E00816080936E0010928100809140
:100BA00081008260809381008091810081608093C8
:100BB0008100809180008160809380008091B100ED
:100BC00084608093B1008091B00081608093B00018
:100BD00080917A00846080937A0080917A008260AC
:100BE00080937A0080917A00816080937A0080916E
:100BF0007A00806880937A001092C10010920603F8
:100C00001092070310920803109209031092C40275
:100C10001092C5021092C6021092C70268EB7BE0E8
:100C200080E090E00E948D0085E292E090930503C1
:100C300080930403E0913502F091360282E08083D4
:100C4000E0913102F09132021082E0913302F09192
:100C5000340280E1808310923D02E0913902F091EC
:100C60003A0286E08083E0913702F0913802808179
:100C700080618083E0913702F09138028081886042
:100C80008083E0913702F091380280818068808310
:100C9000E0913702F091380280818F7D80832FB7F9
:100CA000F8948091210290912202A0912302B091A8
:100CB00024022FBF8093C4029093C502A093C60262
:100CC000B093C7026AE271E080910403909105033A
:100CD0000E9450036AE070E080E090E00E948D0086
:100CE00081E08093D80261E08DE00E9418021092AA
:100CF0002B0310922A0310922903109228031092BA
:100D00002703109226038DE991E090932D038093A1
:100D10002C0390911C03963108F047C02DEB30E076
:100D200030932703209326032BE931E030932903E6
:100D3000209328032CE231E030932B0320932A03E5
:100D40002091680084E0983048F031E09E3008F44B
:100D500030E081E001C0880F3A95EAF7822B80935A
:100D600068002DE630E0983050F02BE630E09E3001
:100D700030F02CE630E0963110F030E020E0309397
:100D8000240320932303292F30E0983008F096C0E5
:100D900081E001C0880F9A95EAF78093250380913E
:100DA0002C0390912D030197F1F780912A039091E4
:100DB0002B03892B49F1E0911F02F091200283E07F
:100DC000E031F80709F1309739F0A389B4899C9193
:100DD0008589809589238C9380912E038E7F8093C3
:100DE0002E0310921E0210921D0280E193E0909358
:100DF000200280931F02E0912303F091240380815D
:100E000090912503892B808360ED77E080E090E06E
:100E10000E946E028CE391E00E945F0360ED77E038
:100E200080E090E00E946E0286E691E00E945F03FF
:100E300064EF71E080E090E00E946E0286E791E04E
:100E40000E945F0360ED77E080E090E00E946E0218
:100E500080E0E82E80E0F82E80E193E00E94140309
:100E600018161906C4F580E193E00E942C038983CB
:100E70001A8200910E0310910F030F5F1F4FC801DC
:100E80000E947203882399F020910A0330910B038A
:100E900080910E0390910F03BE016F5F7F4F820F11
:100EA000931F0E948A0A10930F0300930E0365E0BC
:100EB00070E080E090E00E946E02CECF9E3040F461
:100EC0002850310981E001C0880F2A95EAF765CFE3
:100ED0002E503109F7CF80910E0390910F03892B8B
:100EE00009F485C065E971E080910A0390910B03D4
:100EF0000E94810A892B09F05EC084EA91E00E9479
:100F00005F0364EF71E080E090E00E946E0284EB8A
:100F100091E00E945F0364EF71E080E090E00E9446
:100F20006E0261E08DE00E94CC0168EE73E080E02B
:100F300090E00E946E0260E08DE00E94CC0168EEBD
:100F400073E080E090E00E946E0261E08DE00E941C
:100F5000CC0168EE73E080E090E00E946E0260E0F9
:100F60008DE00E94CC0168EE73E080E090E00E948A
:100F70006E0261E08DE00E94CC0168EE73E080E0DB
:100F800090E00E946E0260E08DE00E94CC0180EC57
:100F900091E00E945F0364EF71E080E090E00E94C6
:100FA0006E028FEC91E00E945F0364EF71E080E0DD
:100FB00090E00E946E0290E080E00E947203209117
:100FC0000A0330910B0381111EC02115310519F060
:100FD000C9010E94320910920B0310920A03109269
:100FE0000F0310920E0310920D0310920C03E114E4
:100FF000F10409F431CF0E942901882309F42CCF90
:101000000E94000029CF10920F0310920E0365E694
:1010100071E0C9010E948A0AEACF80910A03909187
:101020000B03009711F00E9432098CE191E090933C
:1010300011038093100380911F0290912002805130
:10104000934071F4E0912303F09124039081809107
:1010500025038095892380831092200210921F021D
:1010600008952F923F924F925F926F927F928F924C
:101070009F92AF92BF92CF92DF92EF92FF920F9327
:101080001F93CF93DF93CDB7DEB7CA1BDB0B0FB631
:10109000F894DEBF0FBECDBF09942A8839884888EE
:1010A0005F846E847D848C849B84AA84B984C88484
:1010B000DF80EE80FD800C811B81AA81B981CE0F7B
:1010C000D11D0FB6F894DEBF0FBECDBFED01089560
:1010D00097FB072E16F4009407D077FD09D00E94E5
:1010E0007C0807FC05D03EF4909581959F4F0895AC
:1010F000709561957F4F0895AA1BBB1B51E107C0F6
:10110000AA1FBB1FA617B70710F0A61BB70B881F97
:10111000991F5A95A9F780959095BC01CD01089526
:10112000EE0FFF1F0590F491E02D09940F931F938C
:10113000CF93DF938230910510F482E090E0E0914C
:101140003103F091320330E020E0B0E0A0E03097CE
:1011500099F42115310509F44AC0281B390B2430B4
:101160003105D8F58A819B816115710589F1FB01F3
:1011700093838283FE0111C04081518102811381DA
:1011800048175907E0F04817590799F4109761F08C
:1011900012960C93129713961C933296CF01DF91FF
:1011A000CF911F910F910895009331031093320353
:1011B000F4CF2115310551F04217530738F0A9013A
:1011C000DB019A01BD01DF01F801C1CFEF01F9CFC9
:1011D0009093320380933103CDCFFE01E20FF31FD2
:1011E000819391932250310939832883D7CF20915D
:1011F0002F0330913003232B41F4209102013091D1
:1012000003013093300320932F032091000130918C
:1012100001012115310541F42DB73EB7409104017C
:1012200050910501241B350BE0912F03F091300301
:10123000E217F307A0F42E1B3F0B2817390778F0AD
:10124000AC014E5F5F4F2417350748F04E0F5F1F0C
:101250005093300340932F03819391939FCFF0E0FD
:10126000E0E09CCFCF93DF930097E9F0FC01329749
:1012700013821282A0913103B0913203ED0130E06C
:1012800020E01097A1F420813181820F931F2091DB
:101290002F03309130032817390709F061C0F0930C
:1012A0003003E0932F03DF91CF910895EA01CE1729
:1012B000DF07E8F54A815B819E0141155105B1F7D1
:1012C000E901FB83EA8349915991C40FD51FEC17BB
:1012D000FD0761F4808191810296840F951FE901D9
:1012E00099838883828193819B838A83F0E0E0E005
:1012F00012968D919C9113970097B9F52D913C9181
:101300001197CD010296820F931F20912F033091E8
:1013100030032817390739F6309751F51092320308
:1013200010923103B0933003A0932F03BCCFD3832B
:10133000C28340815181840F951FC817D90761F47A
:101340004E5F5F4F88819981480F591F51834083B9
:101350008A819B81938382832115310509F0B0CF67
:10136000F0933203E09331039ECFFD01DC01C0CF47
:1013700013821282D7CFB0E0A0E0E1ECF9E00C9448
:1013800033088C01009751F4CB010E9496088C0120
:10139000C801CDB7DEB7E0E10C944F08FC01E60FC1
:1013A000F71F9C0122503109E217F30708F49DC092
:1013B000D901CD91DC911197C617D70798F0C530A8
:1013C000D10530F3CE0104978617970708F3C61BA3
:1013D000D70B2297C193D1936D937C93CF010E9439
:1013E0003209D6CF5B01AC1ABD0A4C018C0E9D1E92
:1013F000A0913103B0913203512C412CF12CE12CFE
:10140000109731F580912F0390913003881599053D
:1014100009F05CC04616570608F058C080910001DC
:1014200090910101009741F48DB79EB7409104015E
:1014300050910501841B950BE817F90708F055C07A
:10144000F0933003E0932F03F90171836083A0CF01
:101450008D919C91119712966C90129713967C9097
:101460001397A815B90559F56C0142E0C40ED11CBB
:10147000CA14DB0420F1AC014A195B09DA011296A7
:10148000159780F06282738251834083D9016D93F6
:101490007C93E114F10471F0D7011396FC93EE9361
:1014A000129776CF22968C0F9D1FF901918380832E
:1014B000F301EFCFF0933203E093310369CF481685
:1014C000590608F42C017D01D3019ACFCB010E946B
:1014D00096087C01009749F0AE01B8010E94780A95
:1014E000C8010E943209870153CF10E000E050CFBD
:1014F000FB01DC0102C001900D9241505040D8F731
:101500000895FB01DC018D91019080190110D9F340
:10151000990B0895FB01DC0101900D920020E1F789
:10152000089510E0C2E6D0E004C0FE010E949008D9
:0C1530002196C336D107C9F7F894FFCF0D
:10153C00000033038000000000005F01BE00EC00DF
:10154C00AC011D01FB000F0100000000B802BE0041
:10155C004D03EB0014032C03A002564D4450565F70
:10156C00317C315F564D4450560D0A0041542B438B
:10157C00495053544152543D22544350222C223151
:10158C0039322E3136382E312E313032222C363043
:10159C003030300D0A0041542B43495053454E44D2
:1015AC003D33300D0A0041726475696E6F5F45738F
:1015BC0070383236362D3031735F436F6E6E656323
:1015CC0074656421000D0A2B4950442C353A737410
:1015DC006172740041542B43495053454E443D3184
:1015EC00310D0A00426C696E6B696E672E2E2E00EF
:1015FC0041542B43495053454E443D380D0A00424B
:08160C006C696E6B656421003E
:107E0000112484B714BE81FFF0D085E080938100F7
:107E100082E08093C00088E18093C10086E0809377
:107E2000C20080E18093C4008EE0C9D0259A86E02C
:107E300020E33CEF91E0309385002093840096BBD3
:107E4000B09BFECF1D9AA8958150A9F7CC24DD24C4
:107E500088248394B5E0AB2EA1E19A2EF3E0BF2EE7
:107E6000A2D0813461F49FD0082FAFD0023811F036
:107E7000013811F484E001C083E08DD089C08234E0
:107E800011F484E103C0853419F485E0A6D080C0E4
:107E9000853579F488D0E82EFF2485D0082F10E0AE
:107EA000102F00270E291F29000F111F8ED06801E7
:107EB0006FC0863521F484E090D080E0DECF843638
:107EC00009F040C070D06FD0082F6DD080E0C81688
:107ED00080E7D80618F4F601B7BEE895C0E0D1E017
:107EE00062D089930C17E1F7F0E0CF16F0E7DF06D8
:107EF00018F0F601B7BEE89568D007B600FCFDCFD4
:107F0000A601A0E0B1E02C9130E011968C91119780
:107F100090E0982F8827822B932B1296FA010C0160
:107F200087BEE89511244E5F5F4FF1E0A038BF0790
:107F300051F7F601A7BEE89507B600FCFDCF97BE46
:107F4000E89526C08437B1F42ED02DD0F82E2BD052
:107F50003CD0F601EF2C8F010F5F1F4F84911BD097
:107F6000EA94F801C1F70894C11CD11CFA94CF0C13
:107F7000D11C0EC0853739F428D08EE10CD085E9AC
:107F80000AD08FE07ACF813511F488E018D01DD067
:107F900080E101D065CF982F8091C00085FFFCCF94
:107FA0009093C60008958091C00087FFFCCF809118
:107FB000C00084FD01C0A8958091C6000895E0E648
:107FC000F0E098E1908380830895EDDF803219F02E
:107FD00088E0F5DFFFCF84E1DECF1F93182FE3DFCA
:107FE0001150E9F7F2DF1F91089580E0E8DFEE27F6
:047FF000FF270994CA
:027FFE00040479
:0400000300007E007B
:00000001FF