:100000000C9463000C948B000C948B000C948B006C
:100010000C948B000C948B000C948B000C948B0034
:100020000C948B000C948B000C948B000C948B0024
:100030000C948B000C948B000C948B000C948B0014
:100040000C947D030C948B000C944B030C942503AF
:100050000C948B000C948B000C948B000C948B00F4
:100060000C948B000C948B000000000024002700EF
:100070002A0000000000250028002B0000000000DE
:1000800023002600290004040404040404040202DA
:100090000202020203030303030301020408102007
:1000A0004080010204081020010204081020000012
:1000B0000008000201000003040700000000000027
:1000C0000000C7035C0611241FBECFEFD8E0DEBFDF
:1000D000CDBF22E0A8E6B1E001C01D92A236B20772
:1000E000E1F711E0A0E0B1E0E4E5F1E102C0059044
:1000F0000D92A836B107D9F710E0C2E6D0E004C0EF
:100100002197FE010E949C06C136D107C9F70E94C3
:1001100014040C949D080C940000CF92DF92EF928F
:10012000FF920F931F932FB7F894C0906F01D09058
:100130007001E0907101F09072012FBF6C0D7D1D78
:100140008E1D9F1D4FB7F89400916F0110917001A3
:1001500020917101309172014FBF0C151D052E05C4
:100160003F0528F0601771078207930758F71F9122
:100170000F91FF90EF90DF90CF900895AF92BF92D4
:10018000CF92DF92EF92FF920F931F93CF93DF9363
:100190006C017B018B01040F151FEB015E01AE1892
:1001A000BF08C017D10759F06991D601ED91FC91B4
:1001B0000190F081E02DC6010995892B79F7C501E1
:1001C000DF91CF911F910F91FF90EF90DF90CF9033
:1001D000BF90AF900895FC01538D448D252F30E0E2
:1001E000842F90E0821B930B541710F0CF96089544
:1001F00001970895FC01918D828D981761F0A28D71
:10020000AE0FBF2FB11D5D968C91928D9F5F9F7336
:10021000928F90E008958FEF9FEF0895FC01918DEC
:10022000828D981731F0828DE80FF11D858D90E059
:1002300008958FEF9FEF0895FC01918D228D892FF6
:1002400090E0805C9F4F821B91098F7399270895DE
:1002500083E791E00E941C0121E0892B09F420E052
:10026000822F089580E090E0892B29F00E942801D8
:1002700081110C9400000895FC01A48DA80FB92FE2
:10028000B11DA35ABF4F2C91848D90E001968F73BE
:100290009927848FA689B7892C93A089B1898C91DD
:1002A000837080648C93938D848D981306C002882C
:1002B000F389E02D80818F7D80830895EF92FF92F6
:1002C0000F931F93CF93DF93EC0181E0888F9B8D79
:1002D0008C8D98131AC0E889F989808185FF15C033
:1002E0009FB7F894EE89FF896083E889F989808156
:1002F0008370806480839FBF81E090E0DF91CF9125
:100300001F910F91FF90EF900895F62E0B8D10E046
:100310000F5F1F4F0F731127E02E8C8D8E110CC0B5
:100320000FB607FCFACFE889F989808185FFF5CF00
:10033000CE010E943C01F1CFEB8DEC0FFD2FF11DA2
:10034000E35AFF4FF0829FB7F8940B8FEA89FB893D
:1003500080818062CFCFCF93DF93EC01888D88239B
:10036000B9F0AA89BB89E889F9898C9185FD03C018
:10037000808186FD0DC00FB607FCF7CF8C9185FFFD
:10038000F2CF808185FFEDCFCE010E943C01E9CF05
:10039000DF91CF910895833081F028F4813099F076
:1003A0008230A9F008958730A9F08830C9F08430F0
:1003B000B1F4809180008F7D03C0809180008F77A1
:1003C00080938000089584B58F7784BD089584B5A7
:1003D0008F7DFBCF8091B0008F778093B000089520
:1003E0008091B0008F7DF9CF1F93CF93DF93282F9B
:1003F00030E0F901E255FF4F8491F901E656FF4FD5
:10040000D491F901EA57FF4FC491CC23A9F0162FDC
:1004100081110E94CB01EC2FF0E0EE0FFF1FEE5890
:10042000FF4FA591B4918FB7F894EC91111108C0CA
:10043000D095DE23DC938FBFDF91CF911F9108957C
:10044000DE2BF8CFCF93DF9390E0FC01E656FF4F11
:1004500024918A579F4FFC0184918823D1F090E02A
:10046000880F991FFC01E859FF4FA591B491FC0139
:10047000EE58FF4FC591D491623071F49FB7F89454
:100480003C91822F809583238C93E8812E2B2883A7
:100490009FBFDF91CF9108958FB7F894EC912E2BE9
:1004A0002C938FBFF6CF3FB7F8948091690190915C
:1004B0006A01A0916B01B0916C0126B5A89B05C0A3
:1004C0002F3F19F00196A11DB11D3FBFBA2FA92FD3
:1004D000982F8827BC01CD01620F711D811D911DD0
:1004E00042E0660F771F881F991F4A95D1F708953C
:1004F0008F929F92AF92BF92CF92DF92EF92FF9234
:100500004B015C010E9453026B017C010E9453026B
:100510006C197D098E099F09683E7340810591051C
:10052000A8F321E0821A9108A108B10888EEC80E4C
:1005300083E0D81EE11CF11C81149104A104B104D4
:1005400029F7FF90EF90DF90CF90BF90AF909F90F2
:100550008F900895FB0101900020E9F73197AF01DA
:10056000461B570BDC01ED91FC910280F381E02DDD
:10057000099420915C0230915D02232B39F421E033
:10058000FC018081882361F020E00AC0BC018091D9
:100590005802909159020E948D0821E0892BA1F701
:1005A000822F08950F931F93CF93DF93EC018881DF
:1005B0009981009759F02A813B812617370730F03F
:1005C00081E0DF91CF911F910F9108958B016F5FB3
:1005D0007F4F0E94C707009759F0998388831B8338
:1005E0000A832C813D81232B59F7FC011082E8CF2F
:1005F00080E0E7CFEF92FF920F931F93CF93DF93AB
:10060000EC017B018A01BA010E94D2022881398162
:10061000811114C02115310519F0C9010E943E074E
:10062000198218821D821C821B821A82CE01DF91E0
:10063000CF911F910F91FF90EF9008951D830C8330
:10064000B701C9010E949608F1CF1F920F920FB611
:100650000F9211242F933F934F935F936F937F9348
:100660008F939F93AF93BF93EF93FF9383E791E0B3
:100670000E943C01FF91EF91BF91AF919F918F91AB
:100680007F916F915F914F913F912F910F900FBE8E
:100690000F901F9018951F920F920FB60F92112472
:1006A0002F938F939F93EF93FF93E0918301F091AA
:1006B00084018081E0918901F0918A0182FD1BC053
:1006C000908180918C018F5F8F7320918D018217B3
:1006D00041F0E0918C01F0E0ED58FE4F958F809352
:1006E0008C01FF91EF919F918F912F910F900FBEF1
:1006F0000F901F9018958081F4CF1F920F920FB624
:100700000F9211242F933F938F939F93AF93BF9397
:1007100080916F0190917001A0917101B09172016F
:100720003091680123E0230F2D3758F50196A11D64
:10073000B11D2093680180936F0190937001A09385
:100740007101B09372018091690190916A01A09149
:100750006B01B0916C010196A11DB11D80936901DF
:1007600090936A01A0936B01B0936C01BF91AF911C
:100770009F918F913F912F910F900FBE0F901F90DF
:10078000189526E8230F0296A11DB11DD2CFE3E7ED
:10079000F1E01382128288EE93E0A0E0B0E084835F
:1007A0009583A683B7838AE091E09183808385EC6B
:1007B00090E09587848784EC90E09787868780EC2B
:1007C00090E0918B808B81EC90E0938B828B82EC1C
:1007D00090E0958B848B86EC90E0978B868B118EC6
:1007E000128E138E148EE0E1F2E0168217821086CC
:1007F0001186128613861486158616861786108A29
:10080000118A128A138A148A158AE8E5F2E01182A5
:100810001082138212821582148250E040E069E255
:1008200071E0CF010C94FA02CF93DF9300D000D097
:1008300000D0CDB7DEB7789484B5826084BD84B52E
:10084000816084BD85B5826085BD85B5816085BDCB
:1008500080916E00816080936E0010928100809183
:10086000810082608093810080918100816080930B
:100870008100809180008160809380008091B10030
:1008800084608093B1008091B00081608093B0005B
:1008900080917A00846080937A0080917A008260EF
:1008A00080937A0080917A00816080937A008091B1
:1008B0007A00806880937A001092C10010925402EE
:1008C0001092550210925602109257021092120284
:1008D00010921302109214021092150268EB7BE042
:1008E00080E090E00E948D0083E791E090935302B6
:1008F00080935202E0918301F091840102E0008331
:10090000E0917F01F09180011082E0918101F091EE
:10091000820180E1808310928B01E0918701F09148
:10092000880116E01083E0918501F09186018081B5
:1009300080618083E0918501F091860180818860EB
:100940008083E0918501F0918601808180688083B9
:10095000E0918501F091860180818F7D80832FB7A2
:10096000F89480916F0190917001A0917101B09104
:1009700072012FBF8093120290931302A09314026E
:10098000B093150268E171E0809152029091530298
:100990000E94AA026AE070E080E090E00E948D0070
:1009A00081E08093260262E087E00E94220261E0FB
:1009B0008CE00E94220261E08DE00E942202E09120
:1009C0008301F09184010083E0917F01F091800127
:1009D0001082E0918101F09182018FEC808310926E
:1009E0008B01E0918701F09188011083E0918501EE
:1009F000F0918601808180618083E0918501F09192
:100A00008601808188608083E0918501F091860174
:100A1000808180688083E0918501F09186018081EA
:100A20008F7D808395EB492E90E0592E21EA622E2E
:100A300020E0722E3DE8C32E30E0D32E40E0A42EFD
:100A400040E0B42E88248394912CF2018491F30128
:100A50001491F6010491011143C010926E0110929D
:100A60006D0162E370E080E090E00E94780261E056
:100A70008CE00E94F40183E791E00E941C011816AB
:100A800019060CF042C083E791E00E94FA008983C6
:100A90001A8200915C0210915D020F5F1F4FB80136
:100AA00088E592E00E94D202882399F020915802B2
:100AB0003091590280915C0290915D02BE016F5F9E
:100AC0007F4F820F931F0E94960810935D02009340
:100AD0005C0262E070E080E090E00E947802CBCFA0
:100AE00081110E94CB01E02FF0E0EE0FFF1FE458D0
:100AF000FF4FA591B4918C91182309F4AECF909239
:100B00006E0180926D0160E0B3CF80915C029091A4
:100B10005D02892B09F4B7C01A8219821C821B82DC
:100B20001E821D824CE050E06AE271E0CE01019627
:100B30000E94FA02E0905802F0905902E114F10488
:100B400009F4ADC000915C0210915D020115110520
:100B5000B9F08D819E81080F191FB801CE01019651
:100B60000E94D202882309F49AC029813A818D819A
:100B70009E81B701820F931F0E9496081E830D83EA
:100B80004D815E8169817A8183E791E00E94BE0098
:100B900067E271E083E791E00E94AA0289819A816D
:100BA000009711F00E943E0787E391E00E94B9028E
:100BB000811113C08DE391E00E94B90281110DC033
:100BC00084E491E00E94B902811107C08BE491E0B6
:100BD0000E94B902882309F44EC063E571E083E7FF
:100BE00091E00E94AA0267E271E083E791E00E942F
:100BF000AA0261E08DE00E94F40168EE73E080E0FB
:100C000090E00E94780260E08DE00E94F40168EEBE
:100C100073E080E090E00E94780261E08DE00E9445
:100C2000F40168EE73E080E090E00E94780260E0FA
:100C30008DE00E94F40168EE73E080E090E00E9495
:100C4000780261E08DE00E94F40168EE73E080E0DC
:100C500090E00E94780260E08DE00E94F4016FE570
:100C600071E083E791E00E94AA0267E271E083E706
:100C700091E00E94AA0250E040E069E271E088E55C
:100C800092E00E94FA02A114B10409F4DECE0E949F
:100C90002801882309F4D9CE0E940000D6CE89818C
:100CA0009A81009711F00E943E071A8219821E82D3
:100CB0001D821C821B8264CF809158029091590240
:100CC000009711F00C943E0708952F923F924F9297
:100CD0005F926F927F928F929F92AF92BF92CF92CC
:100CE000DF92EF92FF920F931F93CF93DF93CDB7D5
:100CF000DEB7CA1BDB0B0FB6F894DEBF0FBECDBF4D
:100D000009942A88398848885F846E847D848C841D
:100D10009B84AA84B984C884DF80EE80FD800C8126
:100D20001B81AA81B981CE0FD11D0FB6F894DEBF09
:100D30000FBECDBFED010895EE0FFF1F0590F4919A
:100D4000E02D09940F931F93CF93DF938230910589
:100D500010F482E090E0E0916002F091610230E0F6
:100D600020E0B0E0A0E0309799F42115310509F4B6
:100D70004AC0281B390B24303105D8F58A819B8164
:100D80006115710589F1FB0193838283FE0111C016
:100D9000408151810281138148175907E0F04817BB
:100DA000590799F4109761F012960C9312971396C5
:100DB0001C933296CF01DF91CF911F910F9108952F
:100DC0000093600210936102F4CF2115310551F0B8
:100DD0004217530738F0A901DB019A01BD01DF0179
:100DE000F801C1CFEF01F9CF9093610280936002C7
:100DF000CDCFFE01E20FF31F819391932250310971
:100E000039832883D7CF20915E0230915F02232B54
:100E100041F4209102013091030130935F0220934D
:100E20005E0220910001309101012115310541F44C
:100E30002DB73EB74091040150910501241B350B9D
:100E4000E0915E02F0915F02E217F307A0F42E1B1F
:100E50003F0B2817390778F0AC014E5F5F4F24171E
:100E6000350748F04E0F5F1F50935F0240935E02BC
:100E7000819391939FCFF0E0E0E09CCFCF93DF93FD
:100E80000097E9F0FC01329713821282A091600270
:100E9000B0916102ED0130E020E01097A1F42081D3
:100EA0003181820F931F20915E0230915F022817DB
:100EB000390709F061C0F0935F02E0935E02DF91B1
:100EC000CF910895EA01CE17DF07E8F54A815B81EB
:100ED0009E0141155105B1F7E901FB83EA83499170
:100EE0005991C40FD51FEC17FD0761F480819181E2
:100EF0000296840F951FE9019983888382819381EB
:100F00009B838A83F0E0E0E012968D919C91139789
:100F10000097B9F52D913C911197CD010296820F62
:100F2000931F20915E0230915F022817390739F62E
:100F3000309751F51092610210926002B0935F02F7
:100F4000A0935E02BCCFD383C28340815181840FC2
:100F5000951FC817D90761F44E5F5F4F888199814B
:100F6000480F591F518340838A819B8193838283D9
:100F70002115310509F0B0CFF0936102E0936002D2
:100F80009ECFFD01DC01C0CF13821282D7CFB0E02B
:100F9000A0E0EDECF7E00C9467068C01009751F4AB
:100FA000CB010E94A2068C01C801CDB7DEB7E0E1FB
:100FB0000C948306FC01E60FF71F9C0122503109B7
:100FC000E217F30708F49DC0D901CD91DC91119788
:100FD000C617D70798F0C530D10530F3CE01049776
:100FE0008617970708F3C61BD70B2297C193D19397
:100FF0006D937C93CF010E943E07D6CF5B01AC1A64
:10100000BD0A4C018C0E9D1EA0916002B091610240
:10101000512C412CF12CE12C109731F580915E027E
:1010200090915F028815990509F05CC04616570635
:1010300008F058C08091000190910101009741F49F
:101040008DB79EB74091040150910501841B950B0B
:10105000E817F90708F055C0F0935F02E0935E02CD
:10106000F90171836083A0CF8D919C9111971296A5
:101070006C90129713967C901397A815B90559F5A3
:101080006C0142E0C40ED11CCA14DB0420F1AC0197
:101090004A195B09DA011296159780F06282738211
:1010A00051834083D9016D937C93E114F10471F075
:1010B000D7011396FC93EE93129776CF22968C0F5E
:1010C0009D1FF90191838083F301EFCFF0936102BB
:1010D000E093600269CF4816590608F42C017D019F
:1010E000D3019ACFCB010E94A2067C01009749F060
:1010F000AE01B8010E948408C8010E943E07870122
:1011000053CF10E000E050CFFB01DC0102C00190A2
:101110000D9241505040D8F70895FB01DC018D91AC
:10112000019080190110D9F3990B0895FB01DC019E
:1011300001900D920020E1F7089510E0C2E6D0E0A2
:1011400004C0FE010E949C062196C336D107C9F750
:04115000F894FFCF41
:10115400000062028000000000005E01BE00EB009F
:10116400AB011C01FA000E01564D4450565F317C10
:10117400315F564D4450560D0A0073657269616CB7
:10118400526561643A3D00737461727400737461F2
:1011940072740D0073746172740A007374617274F2
:1011A4000D0A00426C696E6B696E672E2E2E00422A
:0811B4006C696E6B656421009B
:00000001FF
